:100000006F00E03F00000000DA010000DE010000A8
:1000100000000000000000000000000000000000E0
:1000200000000000000000000000000000000000D0
:10003000CC03000000000000CE0300000000000020
:10004000D0030000D2030000D4030000D603000058
:10005000D8030000DA030000DC030000DE03000028
:10006000E0030000E2030000E4030000E6030000F8
:10007000E8030000EA030000EC030000EE030000C8
:10008000F0030000F2030000F4030000F603000098
:10009000F8030000FA030000FC0300000000000069
:1000A000511126C022C206C4828282441244A24058
:1000B00031018280634E050263C305042E86AA8542
:1000C0007D5515C285466378B6006356C0000606A6
:1000D0008606E36CB6FE014563E4C500918D558D3F
:1000E00085820582F5FA82808682C93F2E858282CA
:1000F0003305A04063D70500B305B040C1B7B305D1
:10010000B0408682653F3305A0408282868263C705
:100110000500634905005D372E858282B305B04036
:10012000E35B05FE3305A040513F3305B0408282BA
:1001300000003D432A876373C3029377F700BDEF46
:10014000ADE5937606FF3D8ABA960CC34CC30CC747
:100150004CC74107E36BD7FE11E28280B306C34070
:100160008A069702000096966780A6002307B700CC
:10017000A306B7002306B700A305B7002305B70001
:10018000A304B7002304B700A303B7002303B700F9
:10019000A302B7002302B700A301B7002301B700F1
:1001A000A300B7002300B700828093F5F50F939664
:1001B0008500D58D93960501D58D61B7939627005F
:1001C0009702000096968682E78086FA9680C1178D
:1001D0001D8F3E96E374C3F8A5B77300203001A0CD
:1001E000EFF21FEC1165111185451305050202C0E0
:1001F00002C202C402C602C802CA02CCF52E93078C
:1002000000027C80371401408D473EC28A85E14759
:10021000130504403EC4852C930700047C808A8526
:100220009147130504403EC4B92CF167374401409F
:10023000938707203EC66C00B7070C0013050480A7
:100240003ECA02C8231C0100F92685451305048017
:100250005921710199BDEFF2BFE4094501266521DD
:10026000716513050520C129B707002083A5070084
:10027000372500001305C5A8352D9D3737440140AB
:10028000930704803E85930500028D29B7470140FE
:100290009387078065D913050480A9299387418135
:1002A0001375F50F88A38C23130504803744014090
:1002B00093C5F5FFC205C181152913040480930578
:1002C00000082285252965DD55BFB71702409843F0
:1002D000B706FFFC61111367170098C3D843216666
:1002E000758FD8C39843B706F7FEFD16758F98C370
:1002F0009843B706FCFFFD16758F98C3D843C176A7
:10030000FD16758FD8C337079F0098C702C002C279
:10031000984FB70601401367170098CFD842518F06
:10032000D8C29843C16637060200558F98C3B716E6
:10033000024009679C42F18F3EC2824785073EC05A
:10034000924781E78247E397E7FEB71702409C4355
:100350001397E7006358070685473EC21247854753
:100360006310F706B72702409843C176FD16719BCC
:1003700098C398431367170098C3B7170240D84330
:10038000D8C3D843758FD8C3D843C166558FD8C357
:100390009843B7060001558F98C39843931667009A
:1003A000E3DD06FED843B7160240719BD8C3D8439D
:1003B00013672700D8C32147DC42B18BE39EE7FED9
:1003C0002101828002C259BF01A001A001A001A0A9
:1003D00001A001A001A001A001A001A001A001A015
:1003E00001A001A001A001A001A001A001A001A005
:1003F00001A001A001A001A001A001A001A09701FE
:10040000002093812149138101F71715000013057E
:100410002573970500209385E5BE1386818063FAD6
:10042000C5008322050023A0550011059105E3EACC
:10043000C5FE138581809385018B6377B5002320EA
:1004400005001105E36DB5FE9302000873900230BC
:100450008D4273904280970200009382A2BA93E289
:10046000320073905230170500001305253A412ED3
:10047000C12EEFF09FE597020000938202DE739099
:100480001234730020309C45611122C226C013F73C
:10049000070113F3F70001C7D8413363E30092214A
:1004A0001377F60F29C78323050001471304800241
:1004B000930480048546B395E600B376B600639254
:1004C000D50293122700BD46B396560093C6F6FF99
:1004D000B3F37600B3125300B3E372006397870659
:1004E0004CC90507A146E317D7FC23207500130765
:1004F000F00F6378C70483234500A14613048002EC
:10050000930480040547B312D700337756006394F1
:10051000E202139726000117BD45B395E50093C588
:10052000F5FFB3F375003317E300B363770063920D
:100530008702232A550085064147E395E6FC2322DE
:1005400075001244824421018280E39C97F80CC913
:1005500049BFE39297FE23285500F1BF23ACA18049
:100560008280EFF2FFB3371702405C4391462A8442
:10057000B18B6385D700A146638AD706B7376E0172
:10058000938707601CC0B7160240DC42918313F7C3
:10059000F700B707002093878701BA978C23DC42C6
:1005A000184093F5F50F93F707083355B70099E313
:1005B0003A85293648C008C448C4B7170240DC430E
:1005C000AD83FD8B13D737008A07F18BD98F93F654
:1005D00037010D476373D700D11737070020130782
:1005E0004700BA978C23D93C08C8C1B45C43B7779D
:1005F000DC02938707C079B799C5371702401C4FB3
:100600005D8D08CF8280B7170240984F1345F5FFE4
:10061000798D88CF8280EFF2BFA81629F577FD1774
:10062000F58FF621DA252111D58F1EA95625FD77E4
:100630009387379FF58FD6212A842EC0D58F962594
:10064000D58FB625D58F5EA55E29C207C18393F7E6
:10065000F7CF5D8F5AA948002937B74701409387E4
:1006600007808245631DF404C2475A24139517007E
:100670003E9542070E0541873E958C416353070422
:1006800086052D3C930540062AC00D3C82479314F5
:100690004500930540063E85813C5E24C207C18724
:1006A00063D307020E05930540061305250339346D
:1006B0001D89C98CC204C18006A46101FDB2B24784
:1006C0006DB78A057DBF1205930540061305250306
:1006D000F5323D89F9BF91C55E250967D98F5EA5C1
:1006E00082805A25F977FD17F98FD5BF93F5F51F4D
:1006F0004EA182804A211375F51F82800A216D8DDB
:100700003335A0008280EFF2BF99B707002003A520
:100710000700B7157A00938505204D321375F50F44
:10072000238FA18093175500898F8A073E950E0568
:10073000239EA1809DBAEFF2BF962A841165111104
:100740008545130505024D3D930700027C80371552
:1007500001408D473EC28A85E147130505403EC4EE
:100760001D3322C637440140B70708006C0013054B
:1007700004803ECA02C8231C0100713D8545130553
:100780000480913F710115B2EFF29F917111AE8417
:100790000144635DC402B7470140138707803A856F
:1007A0009305000432C0993FB74701401387078083
:1007B000024675D5338784008305070013850780BB
:1007C0000504C205C1811D370246E1B7328511011A
:1007D0006FF0BF8D37070020130787021C439386F5
:1007E000018B3E956369D500938601E763E5A6001A
:1007F00008C33E858280FD57EDBF82808280AA8536
:10080000814601460145C5A85111971700009387FD
:10081000273322C217140000130484321D8C26C013
:1008200006C40984BE8411E41244A240824431010A
:10083000E9B77D1493172400A6979C438297E5B7E8
:10084000511122C2971700009387472F17140000F9
:100850001304C42E1D8C26C006C4098481446395EC
:100860008402693F971700009387472D17140000F3
:100870001304042D1D8C0984814463928402A240D8
:100880001244824431018280139724003E9718431A
:1008900085040297971700009387472AC9B71397D3
:1008A00024003E971843850402979717000093870A
:1008B000E728E1B71301C1FD3ED02EC832CA36CCBD
:1008C0003ACE97F7FF1F9387E77C22C4804326C266
:1008D00006C6AA8409C41C4C99E32285AD220C44A7
:1008E00014082686228536C00921B240224492444B
:1008F00013014102828097F7FF1F9387277A9C4359
:10090000AA838DE31387018297F7FF1F23A8E77857
:1009100017F5FFFF1305056FBA8709C51C4123A40E
:10092000F18ABA87D8437D437D556346E304638DDE
:10093000030203A3870863000304931227009A921B
:1009400023A0C2000325031005463316E600518D8F
:100950002320A31023A0D20889466397D3008326BF
:100960004310558E2322C310930617000A07D4C3E1
:10097000BA978CC70145828097F7FFFF93878768F6
:1009800091C717050000130565E895BD82805111D8
:1009900022C206C42A844EA572A523200500232264
:1009A0000500232405002322050623280500232A09
:1009B0000500232C0500214681451305C505EFF0F0
:1009C0004FF7971700009387079E5CD0971700009A
:1009D000938727A01CD497170000938707A45CD4A3
:1009E00097170000938767A600D01CD8A240124436
:1009F00031018280971500009385E5D989AA4111BC
:100A00001386F5FF22C41314160032940A0432949C
:100A10000E042EC09305440726C206C6412AAA84A6
:100A200009CD8247232005003105232CF5FE88C41B
:100A3000130684068145EFF0CFEFB24022442685AD
:100A40009244410182801C4DBDE3511106C422C273
:100A500097070000938747FA1CD597F7FF1F9387E6
:100A6000A7639C43232405042326050423280504A7
:100A70006314F50085471CCD2A841D2848C02285B3
:100A8000052808C422852D2048C4484001469145C8
:100A9000FD3D08440546A545DD3D48440946C94598
:100AA000FD3585471CCCA2401244310182808280F2
:100AB000411197F7FF1F9387275E22C4804326C208
:100AC00006C61C4CAA8499E32285B53F930784048B
:100AD0008047D8437D1763560700984331CF9C4326
:100AE000C5BF8316C400B1E6C1778507232204067B
:100AF0002320040023220400232404005CC42328B0
:100B00000400232A0400232C0400214681451305F8
:100B1000C405EFF00FE2232A0402232C040223244D
:100B20000404232604042285B24022449244410155
:100B300082801304840679BF914526853EC0C13565
:100B4000824788C349FDB1479CC00144E9BF1111E8
:100B500022CA06CC26C8AA862E861304850481479D
:100B600019E4E2405244C2443E857101828004444B
:100B700058407D17635407000040DDB7CA248545FF
:100B800063F3A5020395E400FD55630EB5003685B9
:100B9000A6853EC63AC436C232C00296B247224744
:100BA00092460246C98F93848406E1B7411126C25A
:100BB00093843500F19806C622C4A104B14763F7B7
:100BC000F404B14463E6B4042AC0EF00F05513877F
:100BD000C18014438247368421E41387018118437E
:100BE00001EB3E8581453EC0412F23A8A18082476D
:100BF0003E85A6853EC049277D5782476316E50698
:100C0000314798C33E85EF00505229A0E3DC04FA37
:100C1000B1471CC10145B240224492444101828047
:100C20001840058F634F07022D466376E60018C013
:100C30003A9404C031A058406393860223A6E18011
:100C40003E85EF00904E1305B400130744006199F0
:100C5000B307E540E9D33E94098F18C06DBFD8C2F1
:100C6000C5B7A28640408DBF130435007198E302DA
:100C700085FCB305A4403E853EC0FD2D7D578247CF
:100C8000E319E5FAB5BF1C46FD171CC663DA070079
:100C9000184E63C5E700A9476394F5006F00007B19
:100CA0001C422E851387170018C28CA38280311135
:100CB00022C626C406C8AA872E873284B304D6006B
:100CC00063149400014529A80C203A863E853AC257
:100CD0003EC0553FFD56050482471247E312D5FE3C
:100CE000C2403244A24451018280130181F722C1E3
:100CF000A6DE9307F10106C32AC032C22E8493F404
:100D000087FF11C5184D01E736C6353BB2461717A8
:100D100000001307E7DA6310E40E8247C0435A2449
:100D2000218B630C070E18486DCB1307000298BC8B
:100D30001307000323AA0400B8AC36CA12471306EF
:100D40005002142399C26398C60E92473303F740AA
:100D50006301030202459A863E86A2853AC81AC6F6
:100D6000B937FD566306D520D448324342479A9698
:100D7000D4C81423638E061E130317007D5723A0C7
:100D8000040023A60400D8C023A40400A381040403
:100D900023AC040483450300154617150000130512
:100DA00025D61AC2EF00D036124394401307130021
:100DB00049E513F6060109C613060002A381C4041F
:100DC00013F6860009C61306B002A381C404834546
:100DD00003001306A002638FC506D4441A87814519
:100DE0002545102313031700130606FD6377C50A74
:100DF000B5C9D4C485A817170000130767CE6315BB
:100E0000E4008247804721BF17170000130747C936
:100E1000E317E4F08247C04719B70245A28536C6FA
:100E2000392FB246E30305F07D559A400A44F65443
:100E3000130181088280050729B7171600001306E1
:100E400026CC3306C54005453315C500C98E94C070
:100E50003A8389B752469305460010422ECA63472B
:100E60000602D0C410239306E0026311D6061033A5
:100E70009306A002631ED602D246090713864600D7
:100E8000944232CA63C40602D4C089A03306C0406B
:100E900093E62600D0C494C0F1B713972600369786
:100EA0000607B306C70085451A8725BFFD56E9BF6B
:100EB000050723A20400814581462545102313031D
:100EC0001700130606FD6379C506DDFD0C230D46EC
:100ED00017150000130545C33AC2EF0070231247EF
:100EE00011CD97160000938626C2158D9306000437
:100EF000B396A60088400507558D88C00C2393073C
:100F00001700194617150000130545C03EC28CACEA
:100F1000EF0010202DC517F7FFFF1307A70E05EBF5
:100F20009440524793F606108DC211073ACAD8482A
:100F3000A2473E97D8C819B51397260036970607DB
:100F4000B306C70085451A8795BF2107C5B7024577
:100F50005808970600009386C6D52286A685970076
:100F60000000E70000002AC4A2477D57E391E7FC98
:100F70005A2413770704E31907EAC8487DB50245E8
:100F80005808970600009386C6D22286A685052AB1
:100F9000D9BF011126CA3283B6849045944922CC28
:100FA00006CE2A84AE8763D3C600B2862320D30040
:100FB00003C6370401C685062320D300944393F665
:100FC000060291C68326030089062320D30083A24C
:100FD00007009383970193F26200638302069043B4
:100FE00083C6370413760602B336D00041EA13866F
:100FF0003704A68522851AC43EC23AC00297FD5620
:101000006308D50692472243114594430326030003
:10101000CC47998A014302476397A6003383C540B2
:101020006353030001439447904B6354D600918E61
:1010300036938142E9076312530601451DA88502D4
:10104000D44703260300918EE3DBD2F885461E8643
:10105000A68522851AC83EC616C41EC23AC002978B
:10106000FD5602479243A242B2474243E319D5FCE0
:101070007D55F2406244D24405618280B385D70039
:1010800013050003A381A50483C557041386160026
:101090003E968906A301B60499BF85463E86A6857D
:1010A000228516C61AC43EC23AC00297FD56E30115
:1010B000D5FCB2422243924785020247ADBF1301DD
:1010C00041FD22D206D426D032C2902D36C42AC089
:1010D000930690062E8493823504630DD60263E254
:1010E000C60693068005630FD61863EDC600630736
:1010F000062293063004630DD60A930424042301C8
:10110000C404C1A0930630066304D60A93064006C1
:10111000E315D6FE1440084313F606089305450070
:101120005DC214410CC363D806001307D002B30696
:10113000D040A301E404171600001306A69D29471A
:101140005DA893060007630BD61663E5C6029306F7
:10115000E0066302D61A9306F006E310D6FA0C40B6
:10116000144313F30508138546006306030608C3FA
:101170009442BDA093065007E303D6FE9306800772
:101180006302D61493063007E319D6F61443138688
:10119000460010C38442D04181452685EF00407748
:1011A00019C1058D48C0584018C8A30104045DA8A2
:1011B0001443930424041386460010C39842230169
:1011C000E4040547D5B713F6060414410CC321DE29
:1011D000C206C18689BF93F5050408C3D1D99622FA
:1011E0001307F0066301E610171600001306869237
:1011F0002947A30104044C400CC463C50500084002
:101200006D9908C099E296849DC99684BA85368501
:1012100016CC32CA3AC836C6EFE01FED52464247F6
:10122000B24632950C21FD1436858CA0BA85EFE0CC
:10123000FFE8B24642475246E24263FCE60AA14654
:10124000631ED7001840058B11CB544018486347E4
:10125000D70013070003A38FE4FEFD14B38292406E
:10126000232854002247924602457008A285153370
:101270007D576319E50A7D55A2501254825413011B
:10128000C1028280A382C504171600001306868857
:101290000C40084313F3050814411105630D0302C4
:1012A00008C313F7150001C793E505020CC04147B9
:1012B000A9F20C4093F5F5FD0CC025BF944193E6CF
:1012C000060294C193068007A302D40417160000F7
:1012D0001306868575BF13F3050408C3E30303FCF7
:1012E000C206C1827DBF171600001306A6822147E1
:1012F00009B7AA8621BF90411443CC49137306084D
:10130000138546006306030008C398420CC339A046
:1013100008C313760604984275DA0EA32328040046
:10132000968489B7144892450245A247268682973B
:101330007D57E302E5F41840098B1DEB72474844E2
:10134000E35CE5F23A850DBF92450245A24785462A
:101350001A863AC81AC68297FD56E30ED5F0424760
:101360003243050754447246918EE34FD7FCF9B7D8
:10137000014713039401FDB7511122C22A842E851F
:1013800023A6018A06C4EFF0EFC4FD576317F500EA
:101390009387C18A9C4391C31CC0A240124431016F
:1013A0008280511122C22E848395E50006C40D254A
:1013B000634905007C48AA977CC8A24012443101C9
:1013C00082805E247D777D17F98F5EA4FDB7DE25D0
:1013D000311122C626C406C893F70710AA842E84AA
:1013E0003283B68291CB8395E50036C232C08946FE
:1013F00001461921924202435E247D777D17F98FC1
:101400005EA48315E4003244C2402685A244968639
:101410001A865101F5A8511122C22E848395E50048
:1014200006C4D92EFD575A24631AF500FD77FD171F
:10143000F98F5EA4A2401244310182808567D98F62
:101440005EA468C8C5BF8395E500E5AA311122C630
:1014500026C406C8AA87AE84328419C5184D09E788
:101460002AC0EFF04FDE82471707000013074765D9
:101470006318E406C043184C18C45A24218B49C38E
:1014800018483DCF1848084093F6F40F93F4F40F32
:10149000198D5848634AE5003E85A28536C23EC094
:1014A000CD2C824792463DE1184405057D1718C4AE
:1014B00018401306170010C014A358486308A7006B
:1014C0005A24058B01CB29476396E400A2853E850B
:1014D000C9240DEDC24032442685A24451018280C8
:1014E000170700001307C75F6314E400804761B764
:1014F000170700001307C75AE31FE4F6C047A5BF4C
:101500003E85A2853EC0252882472DDDFD54D9B7F2
:10151000511122C22A842E85B285368623A6018ADD
:1015200006C4EFF06FA6FD576317F5009387C18AD5
:101530009C4391C31CC0A2401244310182804111DE
:1015400097F7FF1F938707B526C2844322C406C6B8
:10155000AA862E8481C89C4C91E72AC02685EFF08C
:101560008FCE824697070000938787556319F40250
:10157000C0400317C40093170701C18313F6870007
:101580002DEA13F6070105EEA5479CC21367070471
:101590005AA47D55B240224492444101828097076B
:1015A00000009387E7536314F4008044D9B797078A
:1015B00000009387E74EE31EF4FAC0445DBF918BB1
:1015C0008DC74C5899C9930744046386F500368546
:1015D00036C0A92E8246232A04025E242322040058
:1015E00093F7B7FD5EA41C481CC05E2493E78700F8
:1015F0005EA41C4899EB5E241307002093F707288C
:101600006385E700A2853685B52C5E2413F71700A5
:101610001DC35C4823240400B307F0401CCC1C48C5
:101620000145ADFB8317C40013F7070825D793E7DF
:1016300007045EA4B9BF898B014791E3584818C4D9
:10164000F9BF511122C22A842E8523A6018A06C41D
:10165000FD2EFD576317F5009387C18A9C4391C304
:101660001CC0A240124431018280D625311122C60D
:1016700006C826C413F78600AA872E8471EBD841CA
:10168000634BE000B8416348E0000145C24032448A
:10169000A2445101828058546DDB84431396360175
:1016A00023A00700635C060670485A24118B19C7F3
:1016B0005840198E585819C33840198E58540C5038
:1016C00081463E853EC002977D5756248247631D62
:1016D000E500904375476368C70637074020050754
:1016E0003357C700058B25C318482322040018C0B0
:1016F00013973601635807007D576314E50098433C
:1017000011E368C84C5884C3C9D1130744046384E7
:10171000E5003E85212C232A040285BF0C5001469A
:101720003E8585463EC002977D572A868247E31E46
:10173000E5F698433DDBF5466305D700D9466312CD
:10174000D70484C399B793E6060456A47D553DBFDC
:10175000984905DF84418D8A98C1998C014691E2B0
:10176000D04910C4E35390F2032384020C503A860C
:101770003E85A6863AC23EC002938247124763471F
:10178000A0005E2493E707045EA4C9B72A97898C5A
:10179000D1BF9C49A5C3411122C406C62A8419C5DC
:1017A0001C4D89E72EC0EFF00FAA82459707000075
:1017B00093870731639BF5004C408397C50095C71D
:1017C00022852244B24041014DB59707000093871E
:1017D00027316394F5000C44CDB797070000938739
:1017E000272CE39CF5FC4C44C9BFB2402244014580
:1017F0004101828001458280511122C22A842E85B6
:10180000B285368623A6018A06C4A524FD57631730
:10181000F5009387C18A9C4391C31CC0A240124427
:1018200031018280AE878395E5005971A6D286D6B4
:10183000A2D4B28463DB0500DE2723A0060093F761
:10184000070885EB930700403DA01304F100619861
:10185000228636C23EC05D2282479246E34E05FC98
:101860005840BD67F98F7977BA9793B717009CC234
:10187000D1BF93070004B65026549CC0014596542E
:1018800065618280DA25211122C806CA26C6098B25
:101890002E8401CF930774041CC01CC885475CC804
:1018A000D2404244B2446101828034005000AA8494
:1018B000953F92452AC02685EFF04FAF19E983176F
:1018C000C40013F7072069FFF19B93E727005EA48C
:1018D000D1B717F7FFFF1307271298D45A2408C06F
:1018E00008C8136707085AA4124758C8224719CBDB
:1018F0008315E4002685052A11C55E24F19B93E734
:1019000017005EA45E240247B364F70046A449BFF3
:1019100093F5F50F2A966314C500014582801C21BA
:10192000E38EB7FE0505C5BF82808280CDC183A747
:10193000C5FF511122C206C426C01384C5FF63D35C
:1019400007003E94AA84CD379387C1809C4399EBCE
:101950002322040023A681801244A24026858244CB
:101960003101E1B7637EF40014403307D40063967D
:10197000E7009843DC43369718C05CC0E1BFBA87E4
:10198000D84319C3E37DE4FE94433386D700631F35
:1019900086001040B29694C33386D700E31EC7FA80
:1019A00010435843B29694C3D8C37DB76375C4003F
:1019B000B1479CC055B71040B306C4006316D700AA
:1019C00014435843B29614C058C0C0C371B7828044
:1019D000511122C22A842E85B285368623A6018A19
:1019E00006C47128FD576317F5009387C18A9C438D
:1019F00091C31CC0A240124431018280511122C205
:101A00002A842E85B28523A6018A06C4B920FD57F3
:101A10006317F5009387C18A9C4391C31CC0A24001
:101A2000124431018280511122C22A842E8523A6BC
:101A3000018A06C40D28FD576317F5009387C18AF4
:101A40009C4391C31CC0A240124431018280930781
:101A5000800523A6F18A7D5582809307800523A601
:101A6000F18A7D5582809307800523A6F18A01457E
:101A700082809307800523A6F18A7D558280930793
:101A8000800523A6F18A7D55828000005379737406
:101A9000656D436C6B313A25640D0A00000000004F
:101AA0000000000000000000000000000000000036
:101AB0000000000000000000000000000000000026
:101AC0000000000000000000000000000000000016
:101AD0000000000000000000000000000000000006
:101AE00000000000000000000000000000000000F6
:101AF000000000000000000000000000232D302B3B
:101B000020000000686C4C00656667454647000091
:101B10003031323334353637383941424344454623
:101B200000000000303132333435363738396162E5
:081B300063646566000000001B
:041B38007809000028
:101B3C00006CDC020204060804080C1008101820C3
:101B4C001020304020406080010203040506070885
:101B5C0001020304050607084001002000000000F4
:101B6C00BC1A0000DC1A00009C1A000000000000E7
:101B7C000000000000000000000000000000000059
:101B8C000000000000000000000000000000000049
:101B9C000000000000000000000000000000000039
:101BAC000000000000000000000000000000000029
:101BBC000000000000000000000000000000000019
:081BCC002C0000202C00002079
:00000001FF
